{
    "_format": "hh-sol-artifact-1",
    "contractName": "crypto",
    "sourceName": "contracts/crypto.sol",
    "abi": [
        {
            "inputs": [
                {
                    "internalType": "address payable",
                    "name": "reciever",
                    "type": "address"
                },
                {
                    "internalType": "uint256",
                    "name": "amount",
                    "type": "uint256"
                },
                {
                    "internalType": "string",
                    "name": "keyword",
                    "type": "string"
                },
                {
                    "internalType": "string",
                    "name": "message",
                    "type": "string"
                }
            ],
            "name": "addtoBlockchain",
            "outputs": [],
            "stateMutability": "nonpayable",
            "type": "function"
        },
        {
            "inputs": [],
            "name": "getTransaction",
            "outputs": [
                {
                    "components": [
                        {
                            "internalType": "address",
                            "name": "sender",
                            "type": "address"
                        },
                        {
                            "internalType": "address",
                            "name": "reciever",
                            "type": "address"
                        },
                        {
                            "internalType": "string",
                            "name": "message",
                            "type": "string"
                        },
                        {
                            "internalType": "uint256",
                            "name": "amount",
                            "type": "uint256"
                        },
                        {
                            "internalType": "uint256",
                            "name": "timestamp",
                            "type": "uint256"
                        },
                        {
                            "internalType": "string",
                            "name": "keyword",
                            "type": "string"
                        }
                    ],
                    "internalType": "struct crypto.Transfer[]",
                    "name": "",
                    "type": "tuple[]"
                }
            ],
            "stateMutability": "view",
            "type": "function"
        },
        {
            "inputs": [],
            "name": "getcount",
            "outputs": [
                {
                    "internalType": "uint256",
                    "name": "",
                    "type": "uint256"
                }
            ],
            "stateMutability": "view",
            "type": "function"
        },
        {
            "inputs": [
                {
                    "internalType": "uint256",
                    "name": "",
                    "type": "uint256"
                }
            ],
            "name": "transactions",
            "outputs": [
                {
                    "internalType": "address",
                    "name": "sender",
                    "type": "address"
                },
                {
                    "internalType": "address",
                    "name": "reciever",
                    "type": "address"
                },
                {
                    "internalType": "string",
                    "name": "message",
                    "type": "string"
                },
                {
                    "internalType": "uint256",
                    "name": "amount",
                    "type": "uint256"
                },
                {
                    "internalType": "uint256",
                    "name": "timestamp",
                    "type": "uint256"
                },
                {
                    "internalType": "string",
                    "name": "keyword",
                    "type": "string"
                }
            ],
            "stateMutability": "view",
            "type": "function"
        }
    ],
    "bytecode": "0x608060405234801561001057600080fd5b50610ba0806100206000396000f3fe608060405234801561001057600080fd5b506004361061004c5760003560e01c8063146af82b146100515780631ab324f51461006f57806359705f811461008b5780639ace38c2146100a9575b600080fd5b6100596100de565b60405161006691906104c5565b60405180910390f35b610089600480360381019061008491906106c4565b6100e7565b005b610093610268565b6040516100a0919061096d565b60405180910390f35b6100c360048036038101906100be919061098f565b61026d565b6040516100d596959493929190610a15565b60405180910390f35b60008054905090565b60016000808282546100f99190610ab3565b9250508190555060016040518060c001604052803373ffffffffffffffffffffffffffffffffffffffff1681526020018673ffffffffffffffffffffffffffffffffffffffff16815260200183815260200185815260200142815260200184815250908060018154018082558091505060019003906000526020600020906006020160009091909190915060008201518160000160006101000a81548173ffffffffffffffffffffffffffffffffffffffff021916908373ffffffffffffffffffffffffffffffffffffffff16021790555060208201518160010160006101000a81548173ffffffffffffffffffffffffffffffffffffffff021916908373ffffffffffffffffffffffffffffffffffffffff160217905550604082015181600201908051906020019061022e929190610409565b50606082015181600301556080820151816004015560a082015181600501908051906020019061025f929190610409565b50505050505050565b606090565b6001818154811061027d57600080fd5b90600052602060002090600602016000915090508060000160009054906101000a900473ffffffffffffffffffffffffffffffffffffffff16908060010160009054906101000a900473ffffffffffffffffffffffffffffffffffffffff16908060020180546102ec90610b38565b80601f016020809104026020016040519081016040528092919081815260200182805461031890610b38565b80156103655780601f1061033a57610100808354040283529160200191610365565b820191906000526020600020905b81548152906001019060200180831161034857829003601f168201915b50505050509080600301549080600401549080600501805461038690610b38565b80601f01602080910402602001604051908101604052809291908181526020018280546103b290610b38565b80156103ff5780601f106103d4576101008083540402835291602001916103ff565b820191906000526020600020905b8154815290600101906020018083116103e257829003601f168201915b5050505050905086565b82805461041590610b38565b90600052602060002090601f016020900481019282610437576000855561047e565b82601f1061045057805160ff191683800117855561047e565b8280016001018555821561047e579182015b8281111561047d578251825591602001919060010190610462565b5b50905061048b919061048f565b5090565b5b808211156104a8576000816000905550600101610490565b5090565b6000819050919050565b6104bf816104ac565b82525050565b60006020820190506104da60008301846104b6565b92915050565b6000604051905090565b600080fd5b600080fd5b600073ffffffffffffffffffffffffffffffffffffffff82169050919050565b600061051f826104f4565b9050919050565b61052f81610514565b811461053a57600080fd5b50565b60008135905061054c81610526565b92915050565b61055b816104ac565b811461056657600080fd5b50565b60008135905061057881610552565b92915050565b600080fd5b600080fd5b6000601f19601f8301169050919050565b7f4e487b7100000000000000000000000000000000000000000000000000000000600052604160045260246000fd5b6105d182610588565b810181811067ffffffffffffffff821117156105f0576105ef610599565b5b80604052505050565b60006106036104e0565b905061060f82826105c8565b919050565b600067ffffffffffffffff82111561062f5761062e610599565b5b61063882610588565b9050602081019050919050565b82818337600083830152505050565b600061066761066284610614565b6105f9565b90508281526020810184848401111561068357610682610583565b5b61068e848285610645565b509392505050565b600082601f8301126106ab576106aa61057e565b5b81356106bb848260208601610654565b91505092915050565b600080600080608085870312156106de576106dd6104ea565b5b60006106ec8782880161053d565b94505060206106fd87828801610569565b935050604085013567ffffffffffffffff81111561071e5761071d6104ef565b5b61072a87828801610696565b925050606085013567ffffffffffffffff81111561074b5761074a6104ef565b5b61075787828801610696565b91505092959194509250565b600081519050919050565b600082825260208201905092915050565b6000819050602082019050919050565b600061079a826104f4565b9050919050565b6107aa8161078f565b82525050565b600081519050919050565b600082825260208201905092915050565b60005b838110156107ea5780820151818401526020810190506107cf565b838111156107f9576000848401525b50505050565b600061080a826107b0565b61081481856107bb565b93506108248185602086016107cc565b61082d81610588565b840191505092915050565b610841816104ac565b82525050565b600060c08301600083015161085f60008601826107a1565b50602083015161087260208601826107a1565b506040830151848203604086015261088a82826107ff565b915050606083015161089f6060860182610838565b5060808301516108b26080860182610838565b5060a083015184820360a08601526108ca82826107ff565b9150508091505092915050565b60006108e38383610847565b905092915050565b6000602082019050919050565b600061090382610763565b61090d818561076e565b93508360208202850161091f8561077f565b8060005b8581101561095b578484038952815161093c85826108d7565b9450610947836108eb565b925060208a01995050600181019050610923565b50829750879550505050505092915050565b6000602082019050818103600083015261098781846108f8565b905092915050565b6000602082840312156109a5576109a46104ea565b5b60006109b384828501610569565b91505092915050565b6109c58161078f565b82525050565b600082825260208201905092915050565b60006109e7826107b0565b6109f181856109cb565b9350610a018185602086016107cc565b610a0a81610588565b840191505092915050565b600060c082019050610a2a60008301896109bc565b610a3760208301886109bc565b8181036040830152610a4981876109dc565b9050610a5860608301866104b6565b610a6560808301856104b6565b81810360a0830152610a7781846109dc565b9050979650505050505050565b7f4e487b7100000000000000000000000000000000000000000000000000000000600052601160045260246000fd5b6000610abe826104ac565b9150610ac9836104ac565b9250827fffffffffffffffffffffffffffffffffffffffffffffffffffffffffffffffff03821115610afe57610afd610a84565b5b828201905092915050565b7f4e487b7100000000000000000000000000000000000000000000000000000000600052602260045260246000fd5b60006002820490506001821680610b5057607f821691505b60208210811415610b6457610b63610b09565b5b5091905056fea2646970667358221220d7311c514e2effcf5f451648a734711eddf518d32ed8d10b2dd4abca6b59760a64736f6c63430008090033",
    "linkReferences": {},
    "deployedLinkReferences": {}
}